:1000000006308A008E2E00002C30840083130008F6
:10001000031918280130F800F701F70B0D28F80B29
:100020000C284A30F700F70B13281628800B0A28F3
:1000300008000830F80000008711A011200883167E
:10004000870000008312AE0D0712031C2D28201616
:100050002008831687003128831220122008831677
:10006000870000008312A0152008831687008312E2
:10007000871D3828F80B1B2800008711A0112008C5
:10008000831687000000831220162008831687003D
:10009000000000008312A015200883168700831239
:1000A000871D5028F8010000071A78148711A01145
:1000B0002008831687008312071220122008831657
:1000C000870083120800201620088316870000008E
:1000D0008312A015200883168700000083120712E0
:1000E0002012200883168700000083128711A011B8
:1000F000200883168700D0308312AE0019202C0808
:10010000AE0019202D08AE001920201220088316F9
:10011000870000008312A015200883168700831231
:10012000871D9028000094280000201620088316C0
:1001300087000000831208006B30AC008030AD00F7
:1001400063206430AC0004206B30AC00AD01632050
:100150006430AC0004201A30AC000130AD006320E4
:100160000A30AC0004201B30AC00AD0163208A11C2
:100170000A12A62E2016200883168700000083127C
:10018000A015200883168700000083120712201292
:10019000200883168700000083128711A011200811
:1001A00083168700D0308312AE0019202C08AE00D1
:1001B0001920201620088316870000008312A0153E
:1001C00020088316870000008312871DE528071288
:1001D0002012200883168700000083128711A011C7
:1001E000200883168700D1308312AE001920F70152
:1001F0000830AF007708B00020162008831687006B
:1002000000008312A0152008831687008312871D23
:100210000729071A0314071E0310F80D0000A01188
:1002200020088316870083128711AF0BFC28201645
:100230002008831687000000831207123008031974
:100240002629201220088316870083120000A0159B
:100250002008831687008312871D2C290000871130
:10026000A0112008831687000000831207122012B5
:1002700020088316870078088312AD00201220081A
:100280008316870000008312A015200883168700BC
:100290008312871D492900004D29000020162008DF
:1002A000831687000000FA0183122D08F8007A08EF
:1002B000F9000800A81F67292808BC3C03189929E1
:1002C000FF3A031D67292708973C03189929A81F9F
:1002D00099292808D53C031C9929031D732927084F
:1002E000083C031C9929AA1F80292A08BC3C031832
:1002F0009929FF3A031D80292908973C0318992959
:10030000AA1F99292A08D53C031C9929031D8C2969
:100310002908083C031C992983168601FC308312A6
:100320008600831688010330831288006430AC0095
:100330000420A81FA6292808BC3C0318D829FF3A86
:10034000031DA6292708973C0318D829A81FD829D8
:100350002808D53C031CD829031DB2292708083CCE
:10036000031CD829AA1FBF292A08D43C0318D8295E
:10037000FF3A031DBF292908073C0318D829AA1FE3
:10038000D8292A08E83C031CD829031DCB292908B1
:10039000903C031CD82983168601FC30831286000A
:1003A000831688010630831288006430AC00042074
:1003B000A81FE5292808BC3C0318172AFF3A031D8B
:1003C000E5292708973C0318172AA81F172A280889
:1003D000D53C031C172A031DF1292708083C031CE0
:1003E000172AAA1FFE292A08E73C0318172AFF3AF2
:1003F000031DFE2929088F3C0318172AAA1F172A54
:100400002A08F83C031C172A031D0A2A2908303C35
:10041000031C172A83168601FC308312860083167C
:1004200088010C30831288006430AC000420A81FBF
:10043000242A2808BC3C0318562AFF3A031D242A04
:100440002708973C0318562AA81F562A2808D53C87
:10045000031C562A031D302A2708083C031C562A71
:10046000AA1F3D2A2A08F73C0318562AFF3A031D03
:100470003D2A29082F3C0318562AAA1B492A2A0874
:10048000073C031C562A031D492A2908D03C031C9B
:10049000562A83168601FC30831286008316880153
:1004A0001830831288006430AC000420A81F632A2F
:1004B0002808BC3C0318952AFF3A031D632A270825
:1004C000973C0318952AA81F952A2808D53C031C99
:1004D000952A031D6F2A2708083C031C952AAA1B8E
:1004E000952A2A08063C0318952AFF3A031D7C2A00
:1004F0002908CF3C0318952AAA1B882A2A08173CEA
:10050000031C952A031D882A2908703C031C952A80
:1005100083168601FC3083128600831688013030F2
:10052000831288006430AC000420A81FA22A280887
:10053000BC3C0318D42AFF3A031DA22A2708973C83
:100540000318D42AA81FD42A2808D53C031CD42A6F
:10055000031DAE2A2708083C031CD42AAA1BD42A50
:100560002A08163C0318D42AFF3A031DBB2A29087F
:100570006F3C0318D42AAA1BC72A2A082A3C031C4A
:10058000D42A031DC72A2908F83C031CD42A831641
:100590008601FC3083128600831688016030831246
:1005A00088006430AC000420A81FE12A2808BC3C65
:1005B0000318132BFF3A031DE12A2708973C031861
:1005C000132BA81F132B2808D53C031C132B031D2A
:1005D000ED2A2708083C031C132BAA1B132B2A08FF
:1005E000293C0318132BFF3A031DFA2A2908F73C6C
:1005F0000318132BAA1B062B2A08423C031C132B9F
:10060000031D062B2908683C031C132B8316860147
:10061000FC308312860083168801C0308312880064
:100620006430AC0004208A110A12162FA81F232B55
:100630002808D43C0318552BFF3A031D232B270809
:10064000073C0318552BA81F552B2808E83C031C12
:10065000552B031D2F2B2708903C031C552BAA1F3D
:100660003C2B2A08BC3C0318552BFF3A031D3C2B9E
:100670002908973C0318552BAA1F552B2A08D53C4F
:10068000031C552B031D482B2908083C031C552B24
:1006900083168601F93083128600831688010330A1
:1006A000831288006430AC000420A81F622B280845
:1006B000D43C0318942BFF3A031D622B2708073CF8
:1006C0000318942BA81F942B2808E83C031C942B98
:1006D000031D6E2B2708903C031C942BAA1F7B2B19
:1006E0002A08D43C0318942BFF3A031D7B2B2908BE
:1006F000073C0318942BAA1F942B2A08E83C031CE0
:10070000942B031D872B2908903C031C942B8316E4
:100710008601F93083128600831688010630831221
:1007200088006430AC000420A81FA12B2808D43C0A
:100730000318D32BFF3A031DA12B2708073C0318EE
:10074000D32BA81FD32B2808E83C031CD32B031D55
:10075000AD2B2708903C031CD32BAA1FBA2B2A08C9
:10076000E73C0318D32BFF3A031DBA2B29088F3C13
:100770000318D32BAA1FD32B2A08F83C031CD32B16
:10078000031DC62B2908303C031CD32B831686017E
:10079000F93083128600831688010C30831288009A
:1007A0006430AC000420A81FE02B2808D43C0318B8
:1007B000122CFF3A031DE02B2708073C0318122CCC
:1007C000A81F122C2808E83C031C122C031DEC2B3C
:1007D0002708903C031C122CAA1FF92B2A08F73C6F
:1007E0000318122CFF3A031DF92B29082F3C03187C
:1007F000122CAA1B052C2A08073C031C122C031DD3
:10080000052C2908D03C031C122C83168601F930D4
:1008100083128600831688011830831288006430A2
:10082000AC000420A81F1F2C2808D43C0318512C0E
:10083000FF3A031D1F2C2708073C0318512CA81F43
:10084000512C2808E83C031C512C031D2B2C270895
:10085000903C031C512CAA1B512C2A08063C03185F
:10086000512CFF3A031D382C2908CF3C0318512C7A
:10087000AA1B442C2A08173C031C512C031D442C92
:100880002908703C031C512C83168601F930831211
:100890008600831688013030831288006430AC00F3
:1008A0000420A81F5E2C2808D43C0318902CFF3A83
:1008B000031D5E2C2708073C0318902CA81F902CC2
:1008C0002808E83C031C902C031D6A2C2708903C48
:1008D000031C902CAA1B902C2A08163C0318902C61
:1008E000FF3A031D772C29086F3C0318902CAA1B94
:1008F000832C2A082A3C031C902C031D832C2908D6
:10090000F83C031C902C83168601F9308312860074
:10091000831688016030831288006430AC000420A4
:10092000A81F9D2C2808D43C0318CF2CFF3A031D88
:100930009D2C2708073C0318CF2CA81FCF2C280874
:10094000E83C031CCF2C031DA92C2708903C031C5A
:10095000CF2CAA1BCF2C2A08293C0318CF2CFF3AF6
:10096000031DB62C2908F73C0318CF2CAA1BC22C58
:100970002A08423C031CCF2C031DC22C2908683CCA
:10098000031CCF2C83168601F93083128600831650
:100990008801C030831288006430AC0004208A11C2
:1009A0000A12172FA81FDF2C2808E73C0318112D67
:1009B000FF3A031DDF2C27088F3C0318112DA81FB9
:1009C000112D2808F83C031C112D031DEB2C2708C2
:1009D000303C031C112DAA1FF82C2A08BC3C03181C
:1009E000112DFF3A031DF82C2908973C0318112DEF
:1009F000AA1F112D2A08D53C031C112D031D042DFF
:100A00002908083C031C112D83168601F33083123C
:100A10008600831688010330831288006430AC009E
:100A20000420A81F1E2D2808E73C0318502DFF3A6C
:100A3000031D1E2D27088F3C0318502DA81F502D75
:100A40002808F83C031C502D031D2A2D2708303C94
:100A5000031C502DAA1F372D2A08D43C0318502DF3
:100A6000FF3A031D372D2908073C0318502DAA1FF4
:100A7000502D2A08E83C031C502D031D432D290846
:100A8000903C031C502D83168601F33083128600A0
:100A9000831688010630831288006430AC0004207D
:100AA000A81F5D2D2808E73C03188F2DFF3A031D72
:100AB0005D2D27088F3C03188F2DA81F8F2D280828
:100AC000F83C031C8F2D031D692D2708303C031CA7
:100AD0008F2DAA1F762D2A08E73C03188F2DFF3A89
:100AE000031D762D29088F3C03188F2DAA1F8F2DEB
:100AF0002A08F83C031C8F2D031D822D2908303C49
:100B0000031C8F2D83168601F33083128600831613
:100B100088010C30831288006430AC000420A81FC8
:100B20009C2D2808E73C0318CE2DFF3A031D9C2D71
:100B300027088F3C0318CE2DA81FCE2D2808F83C7F
:100B4000031CCE2D031DA82D2708303C031CCE2DE1
:100B5000AA1FB52D2A08F73C0318CE2DFF3A031D16
:100B6000B52D29082F3C0318CE2DAA1BC12D2A080C
:100B7000073C031CCE2D031DC12D2908D03C031CAE
:100B8000CE2D83168601F3308312860083168801EA
:100B90001830831288006430AC000420A81FDB2DBD
:100BA0002808E73C03180D2EFF3A031DDB2D27080C
:100BB0008F3C03180D2EA81F0D2E2808F83C031C8F
:100BC0000D2E031DE72D2708303C031C0D2EAA1BFC
:100BD0000D2E2A08063C03180D2EFF3A031DF42D96
:100BE0002908CF3C03180D2EAA1B002E2A08173CFB
:100BF000031C0D2E031D002E2908703C031C0D2E16
:100C000083168601F3308312860083168801303004
:100C1000831288006430AC000420A81F1A2E280814
:100C2000E73C03184C2EFF3A031D1A2E27088F3C71
:100C300003184C2EA81F4C2E2808F83C031C4C2EE1
:100C4000031D262E2708303C031C4C2EAA1B4C2EBD
:100C50002A08163C03184C2EFF3A031D332E290890
:100C60006F3C03184C2EAA1B3F2E2A082A3C031C5B
:100C70004C2E031D3F2E2908F83C031C4C2E8316D6
:100C80008601F33083128600831688016030831258
:100C900088006430AC000420A81F592E2808E73CC7
:100CA00003188B2EFF3A031D592E27088F3C03187B
:100CB0008B2EA81F8B2E2808F83C031C8B2E031D9F
:100CC000652E2708303C031C8B2EAA1B8B2E2A086E
:100CD000293C03188B2EFF3A031D722E2908F73C7E
:100CE00003188B2EAA1B7E2E2A08423C031C8B2E37
:100CF000031D7E2E2908683C031C8B2E831686015B
:100D0000F3308312860083168801C0308312880076
:100D10006430AC0004208A110A12182FFF30A000A2
:100D2000A801A701AA01A90183161F149F141F156A
:100D30009F1107309C0083131F308305003086000D
:100D4000880002308312AC0004209C28AB012B08E1
:100D5000633C031CF92E83168601993083128600AA
:100D6000831688010230831288000530AC0004200D
:100D7000831686018312860183168801043083124C
:100D800088000530AC00042083168601831286019A
:100D9000831688010830831288000530AC000420D7
:100DA00083168601813083128600831688011030F5
:100DB000831288000530AC00042083168601C330FE
:100DC0008312860083168801203083128800053044
:100DD000AC00042083168601E73083128600831658
:100DE00088014030831288000530AC000420AB0A33
:100DF000A72E3B30AC00BA207808A1003C30AC00F4
:100E0000BA207808A2003D30AC00BA207808A300D0
:100E10003E30AC00BA207808A4002108A8002208BF
:100E2000A7002308AA002408A9005A29162BD22CAF
:100E30008A1500288A118A15CA298A118A15942BC5
:100E40008A118A155E2D8A110230AC000420F92E19
:020E500063003D
:10100000A81F0D282808F73C03184128FF3A031DA4
:101010000D2827082F3C03184128A81B1928280849
:10102000073C031C4128031D19282708D03C031C3A
:101030004128AA1F26282A08BC3C03184128FF3A49
:10104000031D26282908973C03184128AA1F412878
:101050002A08D53C031C4128031D32282908083CD6
:10106000031C412883168601E7308312860083160D
:1010700088010330831288006430AC008A11042098
:101080008A15A81F4E282808F73C03188228FF3A23
:10109000031D4E2827082F3C03188228A81B5A2816
:1010A0002808073C031C8228031D5A282708D03C27
:1010B000031C8228AA1F67282A08D43C0318822808
:1010C000FF3A031D67282908073C03188228AA1F36
:1010D00082282A08E83C031C8228031D732829085B
:1010E000903C031C822883168601E7308312860019
:1010F000831688010630831288006430AC008A11A0
:1011000004208A15A81F8F282808F73C0318C32835
:10111000FF3A031D8F2827082F3C0318C328A81B5C
:101120009B282808073C031CC328031D9B2827086D
:10113000D03C031CC328AA1FA8282A08E73C031890
:10114000C328FF3A031DA82829088F3C0318C32889
:10115000AA1FC3282A08F83C031CC328031DB4286F
:101160002908303C031CC32883168601E73083120C
:101170008600831688010C30831288006430AC002E
:101180008A1104208A15A81FD0282808F73C0318C4
:101190000429FF3A031DD02827082F3C03180429EF
:1011A000A81BDC282808073C031C0429031DDC2895
:1011B0002708D03C031C0429AA1FE9282A08F73C69
:1011C00003180429FF3A031DE92829082F3C0318B6
:1011D0000429AA1BF5282A08073C031C0429031D1F
:1011E000F5282908D03C031C042983168601E73022
:1011F00083128600831688011830831288006430B9
:10120000AC008A1104208A15A81F11292808F73C70
:1012100003184529FF3A031D112927082F3C0318FD
:101220004529A81B1D292808073C031C4529031D27
:101230001D292708D03C031C4529AA1B45292A083B
:10124000063C03184529FF3A031D2A292908CF3CEB
:1012500003184529AA1B36292A08173C031C4529CF
:10126000031D36292908703C031C45298316860175
:10127000E73083128600831688013030831288009D
:101280006430AC008A1104208A15A81F522928084E
:10129000F73C03188629FF3A031D522927082F3CE3
:1012A00003188629A81B5E292808073C031C8629E9
:1012B000031D5E292708D03C031C8629AA1B86290A
:1012C0002A08163C03188629FF3A031D6B292908B2
:1012D0006F3C03188629AA1B77292A082A3C031C7D
:1012E0008629031D77292908F83C031C86298316C3
:1012F0008601E730831286008316880160308312EE
:1013000088006430AC008A1104208A15A81F932934
:101310002808F73C0318C729FF3A031D932927081B
:101320002F3C0318C729A81B9F292808073C031C2A
:10133000C729031D9F292708D03C031CC729AA1BC6
:10134000C7292A08293C0318C729FF3A031DAC29DD
:101350002908F73C0318C729AA1BB8292A08423CC8
:10136000031CC729031DB8292908683C031CC72989
:1013700083168601E7308312860083168801C03009
:10138000831288006430AC008A1104208A158A1107
:101390000A121A2FA81B0B2A2808063C03180B2A2E
:1013A000FF3A031DD7292708CF3C03180B2AA81B97
:1013B000E3292808173C031C0B2A031DE3292708EF
:1013C000703C031C0B2AAA1FF0292A08BC3C0318F6
:1013D0000B2AFF3A031DF0292908973C03180B2A12
:1013E000AA1F0B2A2A08D53C031C0B2A031DFC2923
:1013F0002908083C031C0B2A83168601CF30831270
:101400008600831688010330831288006430AC00A4
:101410008A1104208A15A81B4C2A2808063C0318A8
:101420004C2AFF3A031D182A2708CF3C03184C2AE0
:10143000A81B242A2808173C031C4C2A031D242A15
:101440002708703C031C4C2AAA1F312A2A08D43CC6
:1014500003184C2AFF3A031D312A2908073C0318B8
:101460004C2AAA1F4C2A2A08E83C031C4C2A031DBC
:101470003D2A2908903C031C4C2A83168601CF3054
:101480008312860083168801063083128800643038
:10149000AC008A1104208A15A81B8D2A2808063C56
:1014A00003188D2AFF3A031D592A2708CF3C031839
:1014B0008D2AA81B652A2808173C031C8D2A031DAA
:1014C000652A2708703C031C8D2AAA1F722A2A0845
:1014D000E73C03188D2AFF3A031D722A29088F3C26
:1014E00003188D2AAA1F8D2A2A08F83C031C8D2A6E
:1014F000031D7E2A2908303C031C8D2A8316860191
:10150000CF3083128600831688010C308312880046
:101510006430AC008A1104208A15A81BCE2A280842
:10152000063C0318CE2AFF3A031D9A2A2708CF3C0F
:101530000318CE2AA81BA62A2808173C031CCE2A6B
:10154000031DA62A2708703C031CCE2AAA1FB32A13
:101550002A08F73C0318CE2AFF3A031DB32A2908AC
:101560002F3C0318CE2AAA1BBF2A2A08073C031CBB
:10157000CE2A031DBF2A2908D03C031CCE2A83167D
:101580008601CF30831286008316880118308312BB
:1015900088006430AC008A1104208A15A81B0F2B28
:1015A0002808063C03180F2BFF3A031DDB2A2708E7
:1015B000CF3C03180F2BA81BE72A2808173C031C55
:1015C0000F2B031DE72A2708703C031C0F2BAA1BB7
:1015D0000F2B2A08063C03180F2BFF3A031DF42A91
:1015E0002908CF3C03180F2BAA1B002B2A08173CF5
:1015F000031C0F2B031D002B2908703C031C0F2B11
:1016000083168601CF30831286008316880130301E
:10161000831288006430AC008A1104208A15A81B4C
:10162000502B2808063C0318502BFF3A031D1C2B97
:101630002708CF3C0318502BA81B282B2808173C41
:10164000031C502B031D282B2708703C031C502B18
:10165000AA1B502B2A08163C0318502BFF3A031DD7
:10166000352B29086F3C0318502BAA1B412B2A0845
:101670002A3C031C502B031D412B2908F83C031C5A
:10168000502B83168601CF30831286008316880183
:101690006030831288006430AC008A1104208A15FF
:1016A000A81B912B2808063C0318912BFF3A031D19
:1016B0005D2B2708CF3C0318912BA81B692B28080A
:1016C000173C031C912B031D692B2708703C031C3E
:1016D000912BAA1B912B2A08293C0318912BFF3A26
:1016E000031D762B2908F73C0318912BAA1B822B8C
:1016F0002A08423C031C912B031D822B2908683CBD
:10170000031C912B83168601CF308312860083162B
:101710008801C030831288006430AC008A11042034
:101720008A158A110A121D2FA81BD52B2808163CD2
:101730000318D52BFF3A031DA12B27086F3C031874
:10174000D52BA81BAD2B28082A3C031CD52B031D29
:10175000AD2B2708F83C031CD52BAA1FBA2B2A084F
:10176000BC3C0318D52BFF3A031DBA2B2908973C24
:101770000318D52BAA1FD52B2A08D53C031CD52B23
:10178000031DC62B2908083C031CD52B8316860194
:101790009F308312860083168801033083128800ED
:1017A0006430AC008A1104208A15A81B162C280866
:1017B000163C0318162CFF3A031DE22B27086F3C3A
:1017C0000318162CA81BEE2B28082A3C031C162CE9
:1017D000031DEE2B2708F83C031C162CAA1FFB2B1D
:1017E0002A08D43C0318162CFF3A031DFB2B2908AA
:1017F000073C0318162CAA1F162C2A08E83C031CC9
:10180000162C031D072C2908903C031C162C83164C
:1018100086019F308312860083168801063083126A
:1018200088006430AC008A1104208A15A81B572C4C
:101830002808163C0318572CFF3A031D232C2708B1
:101840006F3C0318572CA81B2F2C28082A3C031C7C
:10185000572C031D2F2C2708F83C031C572CAA1FBC
:101860003C2C2A08E73C0318572CFF3A031D3C2C5C
:1018700029088F3C0318572CAA1F572C2A08F83C1C
:10188000031C572C031D482C2908303C031C572CE3
:10189000831686019F3083128600831688010C30E0
:1018A000831288006430AC008A1104208A15A81BBA
:1018B000982C2808163C0318982CFF3A031D642C1A
:1018C00027086F3C0318982CA81B702C28082A3C6A
:1018D000031C982C031D702C2708F83C031C982C23
:1018E000AA1F7D2C2A08F73C0318982CFF3A031DE9
:1018F0007D2C29082F3C0318982CAA1B892C2A0818
:10190000073C031C982C031D892C2908D03C031C80
:10191000982C831686019F308312860083168801D7
:101920001830831288006430AC008A1104208A15B4
:10193000A81BD92C2808163C0318D92CFF3A031DE4
:10194000A52C27086F3C0318D92CA81BB12C2808FC
:101950002A3C031CD92C031DB12C2708F83C031C7E
:10196000D92CAA1BD92C2A08063C0318D92CFF3ADB
:10197000031DBE2C2908CF3C0318D92CAA1BCA2C46
:101980002A08173C031CD92C031DCA2C2908703CBB
:10199000031CD92C831686019F3083128600831680
:1019A00088013030831288006430AC008A11042032
:1019B0008A15A81B1A2D2808163C03181A2DFF3A61
:1019C000031DE62C27086F3C03181A2DA81BF22CC8
:1019D00028082A3C031C1A2D031DF22C2708F83C6A
:1019E000031C1A2DAA1B1A2D2A08163C03181A2D9F
:1019F000FF3A031DFF2C29086F3C03181A2DAA1B60
:101A00000B2D2A082A3C031C1A2D031D0B2D290817
:101A1000F83C031C1A2D831686019F308312860022
:101A2000831688016030831288006430AC008A110C
:101A300004208A15A81B5B2D2808163C03185B2D73
:101A4000FF3A031D272D27086F3C03185B2DA81BA9
:101A5000332D28082A3C031C5B2D031D332D27083A
:101A6000F83C031C5B2DAA1B5B2D2A08293C03189C
:101A70005B2DFF3A031D402D2908F73C03185B2D11
:101A8000AA1B4C2D2A08423C031C5B2D031D4C2D28
:101A90002908683C031C5B2D831686019F30831246
:101AA000860083168801C030831288006430AC0041
:101AB0008A1104208A158A110A12202FA81B9F2D33
:101AC0002808293C03189F2DFF3A031D6B2D27087A
:101AD000F73C03189F2DA81B772D2808423C031CB8
:101AE0009F2D031D772D2708683C031C9F2DAA1FDF
:101AF000842D2A08BC3C03189F2DFF3A031D842D1A
:101B00002908973C03189F2DAA1F9F2D2A08D53C12
:101B1000031C9F2D031D902D2908083C031C9F2D9D
:101B2000831686013F3083128600831688010330B6
:101B3000831288006430AC008A1104208A15A81B27
:101B4000E02D2808293C0318E02DFF3A031DAC2D99
:101B50002708F73C0318E02DA81BB82D2808423CA5
:101B6000031CE02D031DB82D2708683C031CE02D45
:101B7000AA1FC52D2A08D43C0318E02DFF3A031DE7
:101B8000C52D2908073C0318E02DAA1FE02D2A08BF
:101B9000E83C031CE02D031DD12D2908903C031CBB
:101BA000E02D831686013F3083128600831688015C
:101BB0000630831288006430AC008A1104208A1534
:101BC000A81B212E2808293C0318212EFF3A031DAB
:101BD000ED2D2708F73C0318212EA81BF92D280806
:101BE000423C031C212E031DF92D2708683C031CD1
:101BF000212EAA1F062E2A08E73C0318212EFF3AA1
:101C0000031D062E29088F3C0318212EAA1F212E02
:101C10002A08F83C031C212E031D122E2908303CF3
:101C2000031C212E831686013F3083128600831603
:101C300088010C30831288006430AC008A110420C3
:101C40008A15A81B622E2808293C0318622EFF3A29
:101C5000031D2E2E2708F73C0318622EA81B3A2ED0
:101C60002808423C031C622E031D3A2E2708683CBC
:101C7000031C622EAA1F472E2A08F73C0318622E67
:101C8000FF3A031D472E29082F3C0318622EAA1B7A
:101C9000532E2A08073C031C622E031D532E2908CD
:101CA000D03C031C622E831686013F3083128600CF
:101CB000831688011830831288006430AC008A11C2
:101CC00004208A15A81BA32E2808293C0318A32E3C
:101CD000FF3A031D6F2E2708F73C0318A32EA81BFD
:101CE0007B2E2808423C031CA32E031D7B2E2708B5
:101CF000683C031CA32EAA1BA32E2A08063C03182B
:101D0000A32EFF3A031D882E2908CF3C0318A32ECB
:101D1000AA1B942E2A08173C031CA32E031D942EE5
:101D20002908703C031CA32E831686013F308312C2
:101D30008600831688013030831288006430AC003E
:101D40008A1104208A15A81BE42E2808293C0318B0
:101D5000E42EFF3A031DB02E2708F73C0318E42EAB
:101D6000A81BBC2E2808423C031CE42E031DBC2EDD
:101D70002708683C031CE42EAA1BE42E2A08163C04
:101D80000318E42EFF3A031DC92E29086F3C0318DF
:101D9000E42EAA1BD52E2A082A3C031CE42E031D80
:101DA000D52E2908F83C031CE42E831686013F300B
:101DB00083128600831688016030831288006430A5
:101DC000AC008A1104208A15A81B252F2808293C5D
:101DD0000318252FFF3A031DF12E2708F73C03189F
:101DE000252FA81BFD2E2808423C031C252F031D70
:101DF000FD2E2708683C031C252FAA1B252F2A0827
:101E0000293C0318252FFF3A031D0A2F2908F73C08
:101E10000318252FAA1B162F2A08423C031C252F26
:101E2000031D162F2908683C031C252F83168601E5
:101E30003F308312860083168801C03083128800E9
:101E40006430AC008A1104208A158A110A12232FEB
:02400E00713F00
:00000001FF
;PIC16F877A
;CRC=8C8A  CREATED="25-May-22 00:01"
